{"abi":[{"type":"constructor","inputs":[{"name":"_rewardToken","type":"address","internalType":"address"}],"stateMutability":"nonpayable"},{"type":"function","name":"deposit","inputs":[],"outputs":[{"name":"","type":"bytes32","internalType":"bytes32"}],"stateMutability":"payable"},{"type":"function","name":"depositToken","inputs":[{"name":"tokenAddress","type":"address","internalType":"address"},{"name":"amount","type":"uint256","internalType":"uint256"}],"outputs":[{"name":"","type":"bytes32","internalType":"bytes32"}],"stateMutability":"nonpayable"},{"type":"function","name":"getTransaction","inputs":[{"name":"user","type":"address","internalType":"address"},{"name":"txId","type":"bytes32","internalType":"bytes32"}],"outputs":[{"name":"","type":"tuple","internalType":"struct Pool.Transaction","components":[{"name":"amount","type":"uint256","internalType":"uint256"},{"name":"txId","type":"bytes32","internalType":"bytes32"},{"name":"txType","type":"uint8","internalType":"enum Pool.TransactionType"},{"name":"tokenAddress","type":"address","internalType":"address"},{"name":"timestamp","type":"uint256","internalType":"uint256"}]}],"stateMutability":"view"},{"type":"function","name":"getTransactions","inputs":[{"name":"user","type":"address","internalType":"address"}],"outputs":[{"name":"","type":"tuple[]","internalType":"struct Pool.Transaction[]","components":[{"name":"amount","type":"uint256","internalType":"uint256"},{"name":"txId","type":"bytes32","internalType":"bytes32"},{"name":"txType","type":"uint8","internalType":"enum Pool.TransactionType"},{"name":"tokenAddress","type":"address","internalType":"address"},{"name":"timestamp","type":"uint256","internalType":"uint256"}]}],"stateMutability":"view"},{"type":"function","name":"owner","inputs":[],"outputs":[{"name":"","type":"address","internalType":"address"}],"stateMutability":"view"},{"type":"function","name":"pay","inputs":[],"outputs":[{"name":"","type":"bytes32","internalType":"bytes32"}],"stateMutability":"payable"},{"type":"function","name":"renounceOwnership","inputs":[],"outputs":[],"stateMutability":"nonpayable"},{"type":"function","name":"rewardToken","inputs":[],"outputs":[{"name":"","type":"address","internalType":"contract IERC20"}],"stateMutability":"view"},{"type":"function","name":"rewarder","inputs":[],"outputs":[{"name":"","type":"address","internalType":"contract IRewarder"}],"stateMutability":"view"},{"type":"function","name":"setRewarder","inputs":[{"name":"_rewarder","type":"address","internalType":"address"}],"outputs":[],"stateMutability":"nonpayable"},{"type":"function","name":"stake","inputs":[{"name":"tokenAddress","type":"address","internalType":"address"},{"name":"amount","type":"uint256","internalType":"uint256"}],"outputs":[{"name":"","type":"bytes32","internalType":"bytes32"}],"stateMutability":"nonpayable"},{"type":"function","name":"stakeBalances","inputs":[{"name":"","type":"address","internalType":"address"},{"name":"","type":"address","internalType":"address"}],"outputs":[{"name":"","type":"uint256","internalType":"uint256"}],"stateMutability":"view"},{"type":"function","name":"totalStaked","inputs":[{"name":"","type":"address","internalType":"address"}],"outputs":[{"name":"","type":"uint256","internalType":"uint256"}],"stateMutability":"view"},{"type":"function","name":"transferOwnership","inputs":[{"name":"newOwner","type":"address","internalType":"address"}],"outputs":[],"stateMutability":"nonpayable"},{"type":"function","name":"txIndex","inputs":[{"name":"","type":"address","internalType":"address"},{"name":"","type":"bytes32","internalType":"bytes32"}],"outputs":[{"name":"","type":"uint256","internalType":"uint256"}],"stateMutability":"view"},{"type":"function","name":"unstake","inputs":[{"name":"tokenAddress","type":"address","internalType":"address"},{"name":"amount","type":"uint256","internalType":"uint256"}],"outputs":[{"name":"","type":"bytes32","internalType":"bytes32"}],"stateMutability":"nonpayable"},{"type":"function","name":"userTransactions","inputs":[{"name":"","type":"address","internalType":"address"},{"name":"","type":"uint256","internalType":"uint256"}],"outputs":[{"name":"amount","type":"uint256","internalType":"uint256"},{"name":"txId","type":"bytes32","internalType":"bytes32"},{"name":"txType","type":"uint8","internalType":"enum Pool.TransactionType"},{"name":"tokenAddress","type":"address","internalType":"address"},{"name":"timestamp","type":"uint256","internalType":"uint256"}],"stateMutability":"view"},{"type":"function","name":"withdraw","inputs":[{"name":"to","type":"address","internalType":"address"},{"name":"amount","type":"uint256","internalType":"uint256"},{"name":"tokenAddress","type":"address","internalType":"address"}],"outputs":[{"name":"","type":"bytes32","internalType":"bytes32"}],"stateMutability":"nonpayable"},{"type":"event","name":"Deposit","inputs":[{"name":"user","type":"address","indexed":true,"internalType":"address"},{"name":"amount","type":"uint256","indexed":false,"internalType":"uint256"},{"name":"txId","type":"bytes32","indexed":false,"internalType":"bytes32"},{"name":"tokenAddress","type":"address","indexed":false,"internalType":"address"}],"anonymous":false},{"type":"event","name":"OwnershipTransferred","inputs":[{"name":"previousOwner","type":"address","indexed":true,"internalType":"address"},{"name":"newOwner","type":"address","indexed":true,"internalType":"address"}],"anonymous":false},{"type":"event","name":"Pay","inputs":[{"name":"user","type":"address","indexed":true,"internalType":"address"},{"name":"amount","type":"uint256","indexed":false,"internalType":"uint256"},{"name":"txId","type":"bytes32","indexed":false,"internalType":"bytes32"}],"anonymous":false},{"type":"event","name":"Stake","inputs":[{"name":"user","type":"address","indexed":true,"internalType":"address"},{"name":"amount","type":"uint256","indexed":false,"internalType":"uint256"},{"name":"txId","type":"bytes32","indexed":false,"internalType":"bytes32"},{"name":"tokenAddress","type":"address","indexed":false,"internalType":"address"}],"anonymous":false},{"type":"event","name":"Unstake","inputs":[{"name":"user","type":"address","indexed":true,"internalType":"address"},{"name":"amount","type":"uint256","indexed":false,"internalType":"uint256"},{"name":"txId","type":"bytes32","indexed":false,"internalType":"bytes32"},{"name":"tokenAddress","type":"address","indexed":false,"internalType":"address"}],"anonymous":false},{"type":"event","name":"Withdraw","inputs":[{"name":"to","type":"address","indexed":true,"internalType":"address"},{"name":"amount","type":"uint256","indexed":false,"internalType":"uint256"},{"name":"txId","type":"bytes32","indexed":false,"internalType":"bytes32"},{"name":"tokenAddress","type":"address","indexed":false,"internalType":"address"}],"anonymous":false},{"type":"error","name":"OwnableInvalidOwner","inputs":[{"name":"owner","type":"address","internalType":"address"}]},{"type":"error","name":"OwnableUnauthorizedAccount","inputs":[{"name":"account","type":"address","internalType":"address"}]}],"bytecode":{"object":"0x60a060405234801561000f575f5ffd5b506040516125fe3803806125fe83398181016040528101906100319190610212565b335f73ffffffffffffffffffffffffffffffffffffffff168173ffffffffffffffffffffffffffffffffffffffff16036100a2575f6040517f1e4fbdf7000000000000000000000000000000000000000000000000000000008152600401610099919061024c565b60405180910390fd5b6100b1816100f360201b60201c565b508073ffffffffffffffffffffffffffffffffffffffff1660808173ffffffffffffffffffffffffffffffffffffffff16815250505f60028190555050610265565b5f5f5f9054906101000a900473ffffffffffffffffffffffffffffffffffffffff169050815f5f6101000a81548173ffffffffffffffffffffffffffffffffffffffff021916908373ffffffffffffffffffffffffffffffffffffffff1602179055508173ffffffffffffffffffffffffffffffffffffffff168173ffffffffffffffffffffffffffffffffffffffff167f8be0079c531659141344cd1fd0a4f28419497f9722a3daafe3b4186f6b6457e060405160405180910390a35050565b5f5ffd5b5f73ffffffffffffffffffffffffffffffffffffffff82169050919050565b5f6101e1826101b8565b9050919050565b6101f1816101d7565b81146101fb575f5ffd5b50565b5f8151905061020c816101e8565b92915050565b5f60208284031215610227576102266101b4565b5b5f610234848285016101fe565b91505092915050565b610246816101d7565b82525050565b5f60208201905061025f5f83018461023d565b92915050565b60805161238161027d5f395f61142301526123815ff3fe608060405260043610610108575f3560e01c80638da5cb5b11610094578063c2a672e011610063578063c2a672e0146103b2578063d0e30db0146103ee578063dcc3e06e1461040c578063f2fde38b14610436578063f7c618c11461045e57610108565b80638da5cb5b146102d05780639bfd8d61146102fa578063adc9772e14610336578063b842ec441461037257610108565b80633a6462e4116100db5780633a6462e4146101de578063425f003f1461020657806366845b381461024257806369328dec1461027e578063715018a6146102ba57610108565b80630f8cda201461010c5780631b9265b8146101485780632468d78814610166578063338b5dea146101a2575b5f5ffd5b348015610117575f5ffd5b50610132600480360381019061012d9190611894565b610488565b60405161013f9190611a7f565b60405180910390f35b6101506105ce565b60405161015d9190611aae565b60405180910390f35b348015610171575f5ffd5b5061018c60048036038101906101879190611ac7565b610678565b6040516101999190611b14565b60405180910390f35b3480156101ad575f5ffd5b506101c860048036038101906101c39190611b57565b610698565b6040516101d59190611aae565b60405180910390f35b3480156101e9575f5ffd5b5061020460048036038101906101ff9190611894565b610832565b005b348015610211575f5ffd5b5061022c60048036038101906102279190611bbf565b61087d565b6040516102399190611b14565b60405180910390f35b34801561024d575f5ffd5b5061026860048036038101906102639190611bbf565b61089d565b6040516102759190611c63565b60405180910390f35b348015610289575f5ffd5b506102a4600480360381019061029f9190611c7c565b610a0c565b6040516102b19190611aae565b60405180910390f35b3480156102c5575f5ffd5b506102ce610c65565b005b3480156102db575f5ffd5b506102e4610c78565b6040516102f19190611cdb565b60405180910390f35b348015610305575f5ffd5b50610320600480360381019061031b9190611894565b610c9f565b60405161032d9190611b14565b60405180910390f35b348015610341575f5ffd5b5061035c60048036038101906103579190611b57565b610cb4565b6040516103699190611aae565b60405180910390f35b34801561037d575f5ffd5b5061039860048036038101906103939190611b57565b610f49565b6040516103a9959493929190611d03565b60405180910390f35b3480156103bd575f5ffd5b506103d860048036038101906103d39190611b57565b610fc1565b6040516103e59190611aae565b60405180910390f35b6103f66112cd565b6040516104039190611aae565b60405180910390f35b348015610417575f5ffd5b50610420611378565b60405161042d9190611daf565b60405180910390f35b348015610441575f5ffd5b5061045c60048036038101906104579190611894565b61139d565b005b348015610469575f5ffd5b50610472611421565b60405161047f9190611de8565b60405180910390f35b606060035f8373ffffffffffffffffffffffffffffffffffffffff1673ffffffffffffffffffffffffffffffffffffffff1681526020019081526020015f20805480602002602001604051908101604052809291908181526020015f905b828210156105c3578382905f5260205f2090600402016040518060a00160405290815f820154815260200160018201548152602001600282015f9054906101000a900460ff16600481111561053e5761053d611918565b5b60048111156105505761054f611918565b5b81526020016002820160019054906101000a900473ffffffffffffffffffffffffffffffffffffffff1673ffffffffffffffffffffffffffffffffffffffff1673ffffffffffffffffffffffffffffffffffffffff168152602001600382015481525050815260200190600101906104e6565b505050509050919050565b5f5f3411610611576040517f08c379a000000000000000000000000000000000000000000000000000000000815260040161060890611e5b565b60405180910390fd5b5f61061f333460015f611445565b90503373ffffffffffffffffffffffffffffffffffffffff167f1b174056799bea141540e324bb093eb297a02b564c15e75840a30cf0d0f483773483604051610669929190611e79565b60405180910390a28091505090565b6005602052815f5260405f20602052805f5260405f205f91509150505481565b5f5f82116106db576040517f08c379a00000000000000000000000000000000000000000000000000000000081526004016106d290611e5b565b60405180910390fd5b5f73ffffffffffffffffffffffffffffffffffffffff168373ffffffffffffffffffffffffffffffffffffffff1603610749576040517f08c379a000000000000000000000000000000000000000000000000000000000815260040161074090611eea565b60405180910390fd5b8273ffffffffffffffffffffffffffffffffffffffff166323b872dd3330856040518463ffffffff1660e01b815260040161078693929190611f08565b6020604051808303815f875af11580156107a2573d5f5f3e3d5ffd5b505050506040513d601f19601f820116820180604052508101906107c69190611f72565b505f6107d433845f87611445565b90503373ffffffffffffffffffffffffffffffffffffffff167f2d2f30832b12f3672f89e2ff004658336c0f08e24d6af57aadd3bb129c5bba0c84838760405161082093929190611f9d565b60405180910390a28091505092915050565b61083a611640565b8060015f6101000a81548173ffffffffffffffffffffffffffffffffffffffff021916908373ffffffffffffffffffffffffffffffffffffffff16021790555050565b6004602052815f5260405f20602052805f5260405f205f91509150505481565b6108a56117e4565b60035f8473ffffffffffffffffffffffffffffffffffffffff1673ffffffffffffffffffffffffffffffffffffffff1681526020019081526020015f2060045f8573ffffffffffffffffffffffffffffffffffffffff1673ffffffffffffffffffffffffffffffffffffffff1681526020019081526020015f205f8481526020019081526020015f2054815481106109405761093f611fd2565b5b905f5260205f2090600402016040518060a00160405290815f820154815260200160018201548152602001600282015f9054906101000a900460ff16600481111561098e5761098d611918565b5b60048111156109a05761099f611918565b5b81526020016002820160019054906101000a900473ffffffffffffffffffffffffffffffffffffffff1673ffffffffffffffffffffffffffffffffffffffff1673ffffffffffffffffffffffffffffffffffffffff168152602001600382015481525050905092915050565b5f610a15611640565b5f8311610a57576040517f08c379a0000000000000000000000000000000000000000000000000000000008152600401610a4e90611e5b565b60405180910390fd5b5f73ffffffffffffffffffffffffffffffffffffffff168273ffffffffffffffffffffffffffffffffffffffff1603610b7b5782471015610acd576040517f08c379a0000000000000000000000000000000000000000000000000000000008152600401610ac490612049565b60405180910390fd5b5f8473ffffffffffffffffffffffffffffffffffffffff1684604051610af290612094565b5f6040518083038185875af1925050503d805f8114610b2c576040519150601f19603f3d011682016040523d82523d5f602084013e610b31565b606091505b5050905080610b75576040517f08c379a0000000000000000000000000000000000000000000000000000000008152600401610b6c906120f2565b60405180910390fd5b50610bf8565b8173ffffffffffffffffffffffffffffffffffffffff1663a9059cbb85856040518363ffffffff1660e01b8152600401610bb6929190612110565b6020604051808303815f875af1158015610bd2573d5f5f3e3d5ffd5b505050506040513d601f19601f82011682018060405250810190610bf69190611f72565b505b5f610c068585600486611445565b90508473ffffffffffffffffffffffffffffffffffffffff167fcafa5238f92c2d5e25315796ae72487ec8a4a838933a4048e4039fc285ea25bd858386604051610c5293929190611f9d565b60405180910390a2809150509392505050565b610c6d611640565b610c765f6116c7565b565b5f5f5f9054906101000a900473ffffffffffffffffffffffffffffffffffffffff16905090565b6006602052805f5260405f205f915090505481565b5f5f8211610cf7576040517f08c379a0000000000000000000000000000000000000000000000000000000008152600401610cee90611e5b565b60405180910390fd5b60015f9054906101000a900473ffffffffffffffffffffffffffffffffffffffff1673ffffffffffffffffffffffffffffffffffffffff1663632447c9336040518263ffffffff1660e01b8152600401610d519190611cdb565b5f604051808303815f87803b158015610d68575f5ffd5b505af1158015610d7a573d5f5f3e3d5ffd5b505050508273ffffffffffffffffffffffffffffffffffffffff166323b872dd3330856040518463ffffffff1660e01b8152600401610dbb93929190611f08565b6020604051808303815f875af1158015610dd7573d5f5f3e3d5ffd5b505050506040513d601f19601f82011682018060405250810190610dfb9190611f72565b508160055f3373ffffffffffffffffffffffffffffffffffffffff1673ffffffffffffffffffffffffffffffffffffffff1681526020019081526020015f205f8573ffffffffffffffffffffffffffffffffffffffff1673ffffffffffffffffffffffffffffffffffffffff1681526020019081526020015f205f828254610e839190612164565b925050819055508160065f8573ffffffffffffffffffffffffffffffffffffffff1673ffffffffffffffffffffffffffffffffffffffff1681526020019081526020015f205f828254610ed69190612164565b925050819055505f610eeb3384600287611445565b90503373ffffffffffffffffffffffffffffffffffffffff167f20a303edd7bd6f15fff84248be152e6d67c74e7e48918daec998ebfc3267dd18848387604051610f3793929190611f9d565b60405180910390a28091505092915050565b6003602052815f5260405f208181548110610f62575f80fd5b905f5260205f2090600402015f9150915050805f015490806001015490806002015f9054906101000a900460ff16908060020160019054906101000a900473ffffffffffffffffffffffffffffffffffffffff16908060030154905085565b5f8160055f3373ffffffffffffffffffffffffffffffffffffffff1673ffffffffffffffffffffffffffffffffffffffff1681526020019081526020015f205f8573ffffffffffffffffffffffffffffffffffffffff1673ffffffffffffffffffffffffffffffffffffffff1681526020019081526020015f2054101561107d576040517f08c379a0000000000000000000000000000000000000000000000000000000008152600401611074906121e1565b60405180910390fd5b60015f9054906101000a900473ffffffffffffffffffffffffffffffffffffffff1673ffffffffffffffffffffffffffffffffffffffff1663632447c9336040518263ffffffff1660e01b81526004016110d79190611cdb565b5f604051808303815f87803b1580156110ee575f5ffd5b505af1158015611100573d5f5f3e3d5ffd5b505050508160055f3373ffffffffffffffffffffffffffffffffffffffff1673ffffffffffffffffffffffffffffffffffffffff1681526020019081526020015f205f8573ffffffffffffffffffffffffffffffffffffffff1673ffffffffffffffffffffffffffffffffffffffff1681526020019081526020015f205f82825461118b91906121ff565b925050819055508160065f8573ffffffffffffffffffffffffffffffffffffffff1673ffffffffffffffffffffffffffffffffffffffff1681526020019081526020015f205f8282546111de91906121ff565b925050819055508273ffffffffffffffffffffffffffffffffffffffff1663a9059cbb33846040518363ffffffff1660e01b8152600401611220929190612110565b6020604051808303815f875af115801561123c573d5f5f3e3d5ffd5b505050506040513d601f19601f820116820180604052508101906112609190611f72565b505f61126f3384600387611445565b90503373ffffffffffffffffffffffffffffffffffffffff167f9adc692a701e1bb32bbade1761951461dc0c5e770594fcb4bf166861d7b69b708483876040516112bb93929190611f9d565b60405180910390a28091505092915050565b5f5f3411611310576040517f08c379a000000000000000000000000000000000000000000000000000000000815260040161130790611e5b565b60405180910390fd5b5f61131d33345f5f611445565b90503373ffffffffffffffffffffffffffffffffffffffff167f2d2f30832b12f3672f89e2ff004658336c0f08e24d6af57aadd3bb129c5bba0c34835f60405161136993929190611f9d565b60405180910390a28091505090565b60015f9054906101000a900473ffffffffffffffffffffffffffffffffffffffff1681565b6113a5611640565b5f73ffffffffffffffffffffffffffffffffffffffff168173ffffffffffffffffffffffffffffffffffffffff1603611415575f6040517f1e4fbdf700000000000000000000000000000000000000000000000000000000815260040161140c9190611cdb565b60405180910390fd5b61141e816116c7565b50565b7f000000000000000000000000000000000000000000000000000000000000000081565b5f5f61144f611788565b905060035f8773ffffffffffffffffffffffffffffffffffffffff1673ffffffffffffffffffffffffffffffffffffffff1681526020019081526020015f206040518060a001604052808781526020018381526020018660048111156114b8576114b7611918565b5b81526020018573ffffffffffffffffffffffffffffffffffffffff16815260200142815250908060018154018082558091505060019003905f5260205f2090600402015f909190919091505f820151815f0155602082015181600101556040820151816002015f6101000a81548160ff0219169083600481111561153f5761153e611918565b5b021790555060608201518160020160016101000a81548173ffffffffffffffffffffffffffffffffffffffff021916908373ffffffffffffffffffffffffffffffffffffffff160217905550608082015181600301555050600160035f8873ffffffffffffffffffffffffffffffffffffffff1673ffffffffffffffffffffffffffffffffffffffff1681526020019081526020015f20805490506115e491906121ff565b60045f8873ffffffffffffffffffffffffffffffffffffffff1673ffffffffffffffffffffffffffffffffffffffff1681526020019081526020015f205f8381526020019081526020015f208190555080915050949350505050565b6116486117dd565b73ffffffffffffffffffffffffffffffffffffffff16611666610c78565b73ffffffffffffffffffffffffffffffffffffffff16146116c5576116896117dd565b6040517f118cdaa70000000000000000000000000000000000000000000000000000000081526004016116bc9190611cdb565b60405180910390fd5b565b5f5f5f9054906101000a900473ffffffffffffffffffffffffffffffffffffffff169050815f5f6101000a81548173ffffffffffffffffffffffffffffffffffffffff021916908373ffffffffffffffffffffffffffffffffffffffff1602179055508173ffffffffffffffffffffffffffffffffffffffff168173ffffffffffffffffffffffffffffffffffffffff167f8be0079c531659141344cd1fd0a4f28419497f9722a3daafe3b4186f6b6457e060405160405180910390a35050565b5f423360025f81548092919061179d90612232565b919050556001436117ae91906121ff565b406040516020016117c294939291906122fe565b60405160208183030381529060405280519060200120905090565b5f33905090565b6040518060a001604052805f81526020015f81526020015f600481111561180e5761180d611918565b5b81526020015f73ffffffffffffffffffffffffffffffffffffffff1681526020015f81525090565b5f5ffd5b5f73ffffffffffffffffffffffffffffffffffffffff82169050919050565b5f6118638261183a565b9050919050565b61187381611859565b811461187d575f5ffd5b50565b5f8135905061188e8161186a565b92915050565b5f602082840312156118a9576118a8611836565b5b5f6118b684828501611880565b91505092915050565b5f81519050919050565b5f82825260208201905092915050565b5f819050602082019050919050565b5f819050919050565b6118fa816118e8565b82525050565b5f819050919050565b61191281611900565b82525050565b7f4e487b71000000000000000000000000000000000000000000000000000000005f52602160045260245ffd5b6005811061195657611955611918565b5b50565b5f81905061196682611945565b919050565b5f61197582611959565b9050919050565b6119858161196b565b82525050565b61199481611859565b82525050565b60a082015f8201516119ae5f8501826118f1565b5060208201516119c16020850182611909565b5060408201516119d4604085018261197c565b5060608201516119e7606085018261198b565b5060808201516119fa60808501826118f1565b50505050565b5f611a0b838361199a565b60a08301905092915050565b5f602082019050919050565b5f611a2d826118bf565b611a3781856118c9565b9350611a42836118d9565b805f5b83811015611a72578151611a598882611a00565b9750611a6483611a17565b925050600181019050611a45565b5085935050505092915050565b5f6020820190508181035f830152611a978184611a23565b905092915050565b611aa881611900565b82525050565b5f602082019050611ac15f830184611a9f565b92915050565b5f5f60408385031215611add57611adc611836565b5b5f611aea85828601611880565b9250506020611afb85828601611880565b9150509250929050565b611b0e816118e8565b82525050565b5f602082019050611b275f830184611b05565b92915050565b611b36816118e8565b8114611b40575f5ffd5b50565b5f81359050611b5181611b2d565b92915050565b5f5f60408385031215611b6d57611b6c611836565b5b5f611b7a85828601611880565b9250506020611b8b85828601611b43565b9150509250929050565b611b9e81611900565b8114611ba8575f5ffd5b50565b5f81359050611bb981611b95565b92915050565b5f5f60408385031215611bd557611bd4611836565b5b5f611be285828601611880565b9250506020611bf385828601611bab565b9150509250929050565b60a082015f820151611c115f8501826118f1565b506020820151611c246020850182611909565b506040820151611c37604085018261197c565b506060820151611c4a606085018261198b565b506080820151611c5d60808501826118f1565b50505050565b5f60a082019050611c765f830184611bfd565b92915050565b5f5f5f60608486031215611c9357611c92611836565b5b5f611ca086828701611880565b9350506020611cb186828701611b43565b9250506040611cc286828701611880565b9150509250925092565b611cd581611859565b82525050565b5f602082019050611cee5f830184611ccc565b92915050565b611cfd8161196b565b82525050565b5f60a082019050611d165f830188611b05565b611d236020830187611a9f565b611d306040830186611cf4565b611d3d6060830185611ccc565b611d4a6080830184611b05565b9695505050505050565b5f819050919050565b5f611d77611d72611d6d8461183a565b611d54565b61183a565b9050919050565b5f611d8882611d5d565b9050919050565b5f611d9982611d7e565b9050919050565b611da981611d8f565b82525050565b5f602082019050611dc25f830184611da0565b92915050565b5f611dd282611d7e565b9050919050565b611de281611dc8565b82525050565b5f602082019050611dfb5f830184611dd9565b92915050565b5f82825260208201905092915050565b7f416d6f756e74206d7573742062652067726561746572207468616e20300000005f82015250565b5f611e45601d83611e01565b9150611e5082611e11565b602082019050919050565b5f6020820190508181035f830152611e7281611e39565b9050919050565b5f604082019050611e8c5f830185611b05565b611e996020830184611a9f565b9392505050565b7f496e76616c696420746f6b656e206164647265737300000000000000000000005f82015250565b5f611ed4601583611e01565b9150611edf82611ea0565b602082019050919050565b5f6020820190508181035f830152611f0181611ec8565b9050919050565b5f606082019050611f1b5f830186611ccc565b611f286020830185611ccc565b611f356040830184611b05565b949350505050565b5f8115159050919050565b611f5181611f3d565b8114611f5b575f5ffd5b50565b5f81519050611f6c81611f48565b92915050565b5f60208284031215611f8757611f86611836565b5b5f611f9484828501611f5e565b91505092915050565b5f606082019050611fb05f830186611b05565b611fbd6020830185611a9f565b611fca6040830184611ccc565b949350505050565b7f4e487b71000000000000000000000000000000000000000000000000000000005f52603260045260245ffd5b7f496e73756666696369656e74204554482062616c616e636500000000000000005f82015250565b5f612033601883611e01565b915061203e82611fff565b602082019050919050565b5f6020820190508181035f83015261206081612027565b9050919050565b5f81905092915050565b50565b5f61207f5f83612067565b915061208a82612071565b5f82019050919050565b5f61209e82612074565b9150819050919050565b7f4661696c656420746f2073656e642045544800000000000000000000000000005f82015250565b5f6120dc601283611e01565b91506120e7826120a8565b602082019050919050565b5f6020820190508181035f830152612109816120d0565b9050919050565b5f6040820190506121235f830185611ccc565b6121306020830184611b05565b9392505050565b7f4e487b71000000000000000000000000000000000000000000000000000000005f52601160045260245ffd5b5f61216e826118e8565b9150612179836118e8565b925082820190508082111561219157612190612137565b5b92915050565b7f496e73756666696369656e74207374616b652062616c616e63650000000000005f82015250565b5f6121cb601a83611e01565b91506121d682612197565b602082019050919050565b5f6020820190508181035f8301526121f8816121bf565b9050919050565b5f612209826118e8565b9150612214836118e8565b925082820390508181111561222c5761222b612137565b5b92915050565b5f61223c826118e8565b91507fffffffffffffffffffffffffffffffffffffffffffffffffffffffffffffffff820361226e5761226d612137565b5b600182019050919050565b5f819050919050565b61229361228e826118e8565b612279565b82525050565b5f8160601b9050919050565b5f6122af82612299565b9050919050565b5f6122c0826122a5565b9050919050565b6122d86122d382611859565b6122b6565b82525050565b5f819050919050565b6122f86122f382611900565b6122de565b82525050565b5f6123098287612282565b60208201915061231982866122c7565b6014820191506123298285612282565b60208201915061233982846122e7565b6020820191508190509594505050505056fea2646970667358221220ae17ec0e3ece88688294f9587584cb747d41874d220e78205213355553ed2e4064736f6c634300081d0033","linkReferences":{}},"methodIdentifiers":{"deposit()":"d0e30db0","depositToken(address,uint256)":"338b5dea","getTransaction(address,bytes32)":"66845b38","getTransactions(address)":"0f8cda20","owner()":"8da5cb5b","pay()":"1b9265b8","renounceOwnership()":"715018a6","rewardToken()":"f7c618c1","rewarder()":"dcc3e06e","setRewarder(address)":"3a6462e4","stake(address,uint256)":"adc9772e","stakeBalances(address,address)":"2468d788","totalStaked(address)":"9bfd8d61","transferOwnership(address)":"f2fde38b","txIndex(address,bytes32)":"425f003f","unstake(address,uint256)":"c2a672e0","userTransactions(address,uint256)":"b842ec44","withdraw(address,uint256,address)":"69328dec"},"storageLayout":{"storage":[{"astId":39327,"contract":"src/Pool.sol:Pool","label":"_owner","offset":0,"slot":"0","type":"t_address"},{"astId":39787,"contract":"src/Pool.sol:Pool","label":"rewarder","offset":0,"slot":"1","type":"t_contract(IRewarder)39779"},{"astId":39789,"contract":"src/Pool.sol:Pool","label":"_txCounter","offset":0,"slot":"2","type":"t_uint256"},{"astId":39813,"contract":"src/Pool.sol:Pool","label":"userTransactions","offset":0,"slot":"3","type":"t_mapping(t_address,t_array(t_struct(Transaction)39807_storage)dyn_storage)"},{"astId":39819,"contract":"src/Pool.sol:Pool","label":"txIndex","offset":0,"slot":"4","type":"t_mapping(t_address,t_mapping(t_bytes32,t_uint256))"},{"astId":39825,"contract":"src/Pool.sol:Pool","label":"stakeBalances","offset":0,"slot":"5","type":"t_mapping(t_address,t_mapping(t_address,t_uint256))"},{"astId":39829,"contract":"src/Pool.sol:Pool","label":"totalStaked","offset":0,"slot":"6","type":"t_mapping(t_address,t_uint256)"}],"types":{"t_address":{"encoding":"inplace","label":"address","numberOfBytes":"20"},"t_array(t_struct(Transaction)39807_storage)dyn_storage":{"encoding":"dynamic_array","label":"struct Pool.Transaction[]","numberOfBytes":"32","base":"t_struct(Transaction)39807_storage"},"t_bytes32":{"encoding":"inplace","label":"bytes32","numberOfBytes":"32"},"t_contract(IRewarder)39779":{"encoding":"inplace","label":"contract IRewarder","numberOfBytes":"20"},"t_enum(TransactionType)39795":{"encoding":"inplace","label":"enum Pool.TransactionType","numberOfBytes":"1"},"t_mapping(t_address,t_array(t_struct(Transaction)39807_storage)dyn_storage)":{"encoding":"mapping","key":"t_address","label":"mapping(address => struct Pool.Transaction[])","numberOfBytes":"32","value":"t_array(t_struct(Transaction)39807_storage)dyn_storage"},"t_mapping(t_address,t_mapping(t_address,t_uint256))":{"encoding":"mapping","key":"t_address","label":"mapping(address => mapping(address => uint256))","numberOfBytes":"32","value":"t_mapping(t_address,t_uint256)"},"t_mapping(t_address,t_mapping(t_bytes32,t_uint256))":{"encoding":"mapping","key":"t_address","label":"mapping(address => mapping(bytes32 => uint256))","numberOfBytes":"32","value":"t_mapping(t_bytes32,t_uint256)"},"t_mapping(t_address,t_uint256)":{"encoding":"mapping","key":"t_address","label":"mapping(address => uint256)","numberOfBytes":"32","value":"t_uint256"},"t_mapping(t_bytes32,t_uint256)":{"encoding":"mapping","key":"t_bytes32","label":"mapping(bytes32 => uint256)","numberOfBytes":"32","value":"t_uint256"},"t_struct(Transaction)39807_storage":{"encoding":"inplace","label":"struct Pool.Transaction","numberOfBytes":"128","members":[{"astId":39797,"contract":"src/Pool.sol:Pool","label":"amount","offset":0,"slot":"0","type":"t_uint256"},{"astId":39799,"contract":"src/Pool.sol:Pool","label":"txId","offset":0,"slot":"1","type":"t_bytes32"},{"astId":39802,"contract":"src/Pool.sol:Pool","label":"txType","offset":0,"slot":"2","type":"t_enum(TransactionType)39795"},{"astId":39804,"contract":"src/Pool.sol:Pool","label":"tokenAddress","offset":1,"slot":"2","type":"t_address"},{"astId":39806,"contract":"src/Pool.sol:Pool","label":"timestamp","offset":0,"slot":"3","type":"t_uint256"}]},"t_uint256":{"encoding":"inplace","label":"uint256","numberOfBytes":"32"}}},"id":22}