{"abi":[{"type":"constructor","inputs":[{"name":"_pool","type":"address","internalType":"address"},{"name":"_token","type":"address","internalType":"address"},{"name":"_rate","type":"uint256","internalType":"uint256"}],"stateMutability":"nonpayable"},{"type":"function","name":"claim","inputs":[],"outputs":[],"stateMutability":"nonpayable"},{"type":"function","name":"fund","inputs":[{"name":"amount","type":"uint256","internalType":"uint256"}],"outputs":[],"stateMutability":"nonpayable"},{"type":"function","name":"lastUpdateTime","inputs":[],"outputs":[{"name":"","type":"uint256","internalType":"uint256"}],"stateMutability":"view"},{"type":"function","name":"owner","inputs":[],"outputs":[{"name":"","type":"address","internalType":"address"}],"stateMutability":"view"},{"type":"function","name":"pool","inputs":[],"outputs":[{"name":"","type":"address","internalType":"contract Pool"}],"stateMutability":"view"},{"type":"function","name":"renounceOwnership","inputs":[],"outputs":[],"stateMutability":"nonpayable"},{"type":"function","name":"rewardPerTokenStored","inputs":[],"outputs":[{"name":"","type":"uint256","internalType":"uint256"}],"stateMutability":"view"},{"type":"function","name":"rewardRatePerSecond","inputs":[],"outputs":[{"name":"","type":"uint256","internalType":"uint256"}],"stateMutability":"view"},{"type":"function","name":"rewardToken","inputs":[],"outputs":[{"name":"","type":"address","internalType":"contract IERC20"}],"stateMutability":"view"},{"type":"function","name":"rewards","inputs":[{"name":"","type":"address","internalType":"address"}],"outputs":[{"name":"","type":"uint256","internalType":"uint256"}],"stateMutability":"view"},{"type":"function","name":"setRewardRate","inputs":[{"name":"_rate","type":"uint256","internalType":"uint256"}],"outputs":[],"stateMutability":"nonpayable"},{"type":"function","name":"transferOwnership","inputs":[{"name":"newOwner","type":"address","internalType":"address"}],"outputs":[],"stateMutability":"nonpayable"},{"type":"function","name":"updateReward","inputs":[{"name":"user","type":"address","internalType":"address"}],"outputs":[],"stateMutability":"nonpayable"},{"type":"function","name":"userRewardPerTokenPaid","inputs":[{"name":"","type":"address","internalType":"address"}],"outputs":[{"name":"","type":"uint256","internalType":"uint256"}],"stateMutability":"view"},{"type":"event","name":"OwnershipTransferred","inputs":[{"name":"previousOwner","type":"address","indexed":true,"internalType":"address"},{"name":"newOwner","type":"address","indexed":true,"internalType":"address"}],"anonymous":false},{"type":"error","name":"OwnableInvalidOwner","inputs":[{"name":"owner","type":"address","internalType":"address"}]},{"type":"error","name":"OwnableUnauthorizedAccount","inputs":[{"name":"account","type":"address","internalType":"address"}]}],"bytecode":{"object":"0x60c060405234801561000f575f5ffd5b506040516117bd3803806117bd83398181016040528101906100319190610282565b335f73ffffffffffffffffffffffffffffffffffffffff168173ffffffffffffffffffffffffffffffffffffffff16036100a2575f6040517f1e4fbdf700000000000000000000000000000000000000000000000000000000815260040161009991906102e1565b60405180910390fd5b6100b18161013060201b60201c565b508273ffffffffffffffffffffffffffffffffffffffff1660a08173ffffffffffffffffffffffffffffffffffffffff16815250508173ffffffffffffffffffffffffffffffffffffffff1660808173ffffffffffffffffffffffffffffffffffffffff168152505080600181905550426002819055505050506102fa565b5f5f5f9054906101000a900473ffffffffffffffffffffffffffffffffffffffff169050815f5f6101000a81548173ffffffffffffffffffffffffffffffffffffffff021916908373ffffffffffffffffffffffffffffffffffffffff1602179055508173ffffffffffffffffffffffffffffffffffffffff168173ffffffffffffffffffffffffffffffffffffffff167f8be0079c531659141344cd1fd0a4f28419497f9722a3daafe3b4186f6b6457e060405160405180910390a35050565b5f5ffd5b5f73ffffffffffffffffffffffffffffffffffffffff82169050919050565b5f61021e826101f5565b9050919050565b61022e81610214565b8114610238575f5ffd5b50565b5f8151905061024981610225565b92915050565b5f819050919050565b6102618161024f565b811461026b575f5ffd5b50565b5f8151905061027c81610258565b92915050565b5f5f5f60608486031215610299576102986101f1565b5b5f6102a68682870161023b565b93505060206102b78682870161023b565b92505060406102c88682870161026e565b9150509250925092565b6102db81610214565b82525050565b5f6020820190506102f45f8301846102d2565b92915050565b60805160a0516114476103765f395f818161029b015281816102d101528181610433015281816107ff015281816109610152610b3701525f818161030d015281816104700152818161061e015281816107060152818161083b0152818161099e01528181610b7301528181610c5e0152610d8901526114475ff3fe608060405234801561000f575f5ffd5b50600436106100e8575f3560e01c80638da5cb5b1161008a578063ca1d209d11610064578063ca1d209d14610210578063df136d651461022c578063f2fde38b1461024a578063f7c618c114610266576100e8565b80638da5cb5b146101b85780639e447fc6146101d6578063c8f33c91146101f2576100e8565b80635d773b2c116100c65780635d773b2c14610144578063632447c914610162578063715018a61461017e5780638b87634714610188576100e8565b80630700037d146100ec57806316f0115b1461011c5780634e71d92d1461013a575b5f5ffd5b61010660048036038101906101019190610f58565b610284565b6040516101139190610f9b565b60405180910390f35b610124610299565b604051610131919061100f565b60405180910390f35b6101426102bd565b005b61014c6107e5565b6040516101599190610f9b565b60405180910390f35b61017c60048036038101906101779190610f58565b6107eb565b005b610186610acc565b005b6101a2600480360381019061019d9190610f58565b610adf565b6040516101af9190610f9b565b60405180910390f35b6101c0610af4565b6040516101cd9190611037565b60405180910390f35b6101f060048036038101906101eb919061107a565b610b1b565b005b6101fa610c4e565b6040516102079190610f9b565b60405180910390f35b61022a6004803603810190610225919061107a565b610c54565b005b610234610cfd565b6040516102419190610f9b565b60405180910390f35b610264600480360381019061025f9190610f58565b610d03565b005b61026e610d87565b60405161027b91906110c5565b60405180910390f35b6005602052805f5260405f205f915090505481565b7f000000000000000000000000000000000000000000000000000000000000000081565b5f600254426102cc919061110b565b90505f7f000000000000000000000000000000000000000000000000000000000000000073ffffffffffffffffffffffffffffffffffffffff16639bfd8d617f00000000000000000000000000000000000000000000000000000000000000006040518263ffffffff1660e01b81526004016103489190611037565b602060405180830381865afa158015610363573d5f5f3e3d5ffd5b505050506040513d601f19601f820116820180604052508101906103879190611152565b90505f8111156103d55780670de0b6b3a7640000600154846103a9919061117d565b6103b3919061117d565b6103bd91906111eb565b60035f8282546103cd919061121b565b925050819055505b426002819055505f670de0b6b3a764000060045f3373ffffffffffffffffffffffffffffffffffffffff1673ffffffffffffffffffffffffffffffffffffffff1681526020019081526020015f2054600354610431919061110b565b7f000000000000000000000000000000000000000000000000000000000000000073ffffffffffffffffffffffffffffffffffffffff16632468d788337f00000000000000000000000000000000000000000000000000000000000000006040518363ffffffff1660e01b81526004016104ac92919061124e565b602060405180830381865afa1580156104c7573d5f5f3e3d5ffd5b505050506040513d601f19601f820116820180604052508101906104eb9190611152565b6104f5919061117d565b6104ff91906111eb565b90508060055f3373ffffffffffffffffffffffffffffffffffffffff1673ffffffffffffffffffffffffffffffffffffffff1681526020019081526020015f205f82825461054d919061121b565b9250508190555060035460045f3373ffffffffffffffffffffffffffffffffffffffff1673ffffffffffffffffffffffffffffffffffffffff1681526020019081526020015f20819055505f60055f3373ffffffffffffffffffffffffffffffffffffffff1673ffffffffffffffffffffffffffffffffffffffff1681526020019081526020015f205490505f811161061b576040517f08c379a0000000000000000000000000000000000000000000000000000000008152600401610612906112cf565b60405180910390fd5b5f7f000000000000000000000000000000000000000000000000000000000000000073ffffffffffffffffffffffffffffffffffffffff166370a08231306040518263ffffffff1660e01b81526004016106759190611037565b602060405180830381865afa158015610690573d5f5f3e3d5ffd5b505050506040513d601f19601f820116820180604052508101906106b49190611152565b9050808211156106c2578091505b5f60055f3373ffffffffffffffffffffffffffffffffffffffff1673ffffffffffffffffffffffffffffffffffffffff1681526020019081526020015f20819055507f000000000000000000000000000000000000000000000000000000000000000073ffffffffffffffffffffffffffffffffffffffff1663a9059cbb33846040518363ffffffff1660e01b815260040161075f9291906112ed565b6020604051808303815f875af115801561077b573d5f5f3e3d5ffd5b505050506040513d601f19601f8201168201806040525081019061079f9190611349565b6107de576040517f08c379a00000000000000000000000000000000000000000000000000000000081526004016107d5906113be565b60405180910390fd5b5050505050565b60015481565b5f600254426107fa919061110b565b90505f7f000000000000000000000000000000000000000000000000000000000000000073ffffffffffffffffffffffffffffffffffffffff16639bfd8d617f00000000000000000000000000000000000000000000000000000000000000006040518263ffffffff1660e01b81526004016108769190611037565b602060405180830381865afa158015610891573d5f5f3e3d5ffd5b505050506040513d601f19601f820116820180604052508101906108b59190611152565b90505f8111156109035780670de0b6b3a7640000600154846108d7919061117d565b6108e1919061117d565b6108eb91906111eb565b60035f8282546108fb919061121b565b925050819055505b426002819055505f670de0b6b3a764000060045f8673ffffffffffffffffffffffffffffffffffffffff1673ffffffffffffffffffffffffffffffffffffffff1681526020019081526020015f205460035461095f919061110b565b7f000000000000000000000000000000000000000000000000000000000000000073ffffffffffffffffffffffffffffffffffffffff16632468d788877f00000000000000000000000000000000000000000000000000000000000000006040518363ffffffff1660e01b81526004016109da92919061124e565b602060405180830381865afa1580156109f5573d5f5f3e3d5ffd5b505050506040513d601f19601f82011682018060405250810190610a199190611152565b610a23919061117d565b610a2d91906111eb565b90508060055f8673ffffffffffffffffffffffffffffffffffffffff1673ffffffffffffffffffffffffffffffffffffffff1681526020019081526020015f205f828254610a7b919061121b565b9250508190555060035460045f8673ffffffffffffffffffffffffffffffffffffffff1673ffffffffffffffffffffffffffffffffffffffff1681526020019081526020015f208190555050505050565b610ad4610dab565b610add5f610e32565b565b6004602052805f5260405f205f915090505481565b5f5f5f9054906101000a900473ffffffffffffffffffffffffffffffffffffffff16905090565b610b23610dab565b5f60025442610b32919061110b565b90505f7f000000000000000000000000000000000000000000000000000000000000000073ffffffffffffffffffffffffffffffffffffffff16639bfd8d617f00000000000000000000000000000000000000000000000000000000000000006040518263ffffffff1660e01b8152600401610bae9190611037565b602060405180830381865afa158015610bc9573d5f5f3e3d5ffd5b505050506040513d601f19601f82011682018060405250810190610bed9190611152565b90505f811115610c3b5780670de0b6b3a764000060015484610c0f919061117d565b610c19919061117d565b610c2391906111eb565b60035f828254610c33919061121b565b925050819055505b4260028190555082600181905550505050565b60025481565b610c5c610dab565b7f000000000000000000000000000000000000000000000000000000000000000073ffffffffffffffffffffffffffffffffffffffff166323b872dd3330846040518463ffffffff1660e01b8152600401610cb9939291906113dc565b6020604051808303815f875af1158015610cd5573d5f5f3e3d5ffd5b505050506040513d601f19601f82011682018060405250810190610cf99190611349565b5050565b60035481565b610d0b610dab565b5f73ffffffffffffffffffffffffffffffffffffffff168173ffffffffffffffffffffffffffffffffffffffff1603610d7b575f6040517f1e4fbdf7000000000000000000000000000000000000000000000000000000008152600401610d729190611037565b60405180910390fd5b610d8481610e32565b50565b7f000000000000000000000000000000000000000000000000000000000000000081565b610db3610ef3565b73ffffffffffffffffffffffffffffffffffffffff16610dd1610af4565b73ffffffffffffffffffffffffffffffffffffffff1614610e3057610df4610ef3565b6040517f118cdaa7000000000000000000000000000000000000000000000000000000008152600401610e279190611037565b60405180910390fd5b565b5f5f5f9054906101000a900473ffffffffffffffffffffffffffffffffffffffff169050815f5f6101000a81548173ffffffffffffffffffffffffffffffffffffffff021916908373ffffffffffffffffffffffffffffffffffffffff1602179055508173ffffffffffffffffffffffffffffffffffffffff168173ffffffffffffffffffffffffffffffffffffffff167f8be0079c531659141344cd1fd0a4f28419497f9722a3daafe3b4186f6b6457e060405160405180910390a35050565b5f33905090565b5f5ffd5b5f73ffffffffffffffffffffffffffffffffffffffff82169050919050565b5f610f2782610efe565b9050919050565b610f3781610f1d565b8114610f41575f5ffd5b50565b5f81359050610f5281610f2e565b92915050565b5f60208284031215610f6d57610f6c610efa565b5b5f610f7a84828501610f44565b91505092915050565b5f819050919050565b610f9581610f83565b82525050565b5f602082019050610fae5f830184610f8c565b92915050565b5f819050919050565b5f610fd7610fd2610fcd84610efe565b610fb4565b610efe565b9050919050565b5f610fe882610fbd565b9050919050565b5f610ff982610fde565b9050919050565b61100981610fef565b82525050565b5f6020820190506110225f830184611000565b92915050565b61103181610f1d565b82525050565b5f60208201905061104a5f830184611028565b92915050565b61105981610f83565b8114611063575f5ffd5b50565b5f8135905061107481611050565b92915050565b5f6020828403121561108f5761108e610efa565b5b5f61109c84828501611066565b91505092915050565b5f6110af82610fde565b9050919050565b6110bf816110a5565b82525050565b5f6020820190506110d85f8301846110b6565b92915050565b7f4e487b71000000000000000000000000000000000000000000000000000000005f52601160045260245ffd5b5f61111582610f83565b915061112083610f83565b9250828203905081811115611138576111376110de565b5b92915050565b5f8151905061114c81611050565b92915050565b5f6020828403121561116757611166610efa565b5b5f6111748482850161113e565b91505092915050565b5f61118782610f83565b915061119283610f83565b92508282026111a081610f83565b915082820484148315176111b7576111b66110de565b5b5092915050565b7f4e487b71000000000000000000000000000000000000000000000000000000005f52601260045260245ffd5b5f6111f582610f83565b915061120083610f83565b9250826112105761120f6111be565b5b828204905092915050565b5f61122582610f83565b915061123083610f83565b9250828201905080821115611248576112476110de565b5b92915050565b5f6040820190506112615f830185611028565b61126e6020830184611028565b9392505050565b5f82825260208201905092915050565b7f4e6f2072657761726473000000000000000000000000000000000000000000005f82015250565b5f6112b9600a83611275565b91506112c482611285565b602082019050919050565b5f6020820190508181035f8301526112e6816112ad565b9050919050565b5f6040820190506113005f830185611028565b61130d6020830184610f8c565b9392505050565b5f8115159050919050565b61132881611314565b8114611332575f5ffd5b50565b5f815190506113438161131f565b92915050565b5f6020828403121561135e5761135d610efa565b5b5f61136b84828501611335565b91505092915050565b7f5472616e73666572206661696c656400000000000000000000000000000000005f82015250565b5f6113a8600f83611275565b91506113b382611374565b602082019050919050565b5f6020820190508181035f8301526113d58161139c565b9050919050565b5f6060820190506113ef5f830186611028565b6113fc6020830185611028565b6114096040830184610f8c565b94935050505056fea2646970667358221220512d6f0b2e707d318b92d2641c2775408506f20122239692331df81c8fc5007c64736f6c634300081d0033","linkReferences":{}},"methodIdentifiers":{"claim()":"4e71d92d","fund(uint256)":"ca1d209d","lastUpdateTime()":"c8f33c91","owner()":"8da5cb5b","pool()":"16f0115b","renounceOwnership()":"715018a6","rewardPerTokenStored()":"df136d65","rewardRatePerSecond()":"5d773b2c","rewardToken()":"f7c618c1","rewards(address)":"0700037d","setRewardRate(uint256)":"9e447fc6","transferOwnership(address)":"f2fde38b","updateReward(address)":"632447c9","userRewardPerTokenPaid(address)":"8b876347"},"storageLayout":{"storage":[{"astId":39327,"contract":"src/Pool.sol:Rewarder","label":"_owner","offset":0,"slot":"0","type":"t_address"},{"astId":40404,"contract":"src/Pool.sol:Rewarder","label":"rewardRatePerSecond","offset":0,"slot":"1","type":"t_uint256"},{"astId":40406,"contract":"src/Pool.sol:Rewarder","label":"lastUpdateTime","offset":0,"slot":"2","type":"t_uint256"},{"astId":40408,"contract":"src/Pool.sol:Rewarder","label":"rewardPerTokenStored","offset":0,"slot":"3","type":"t_uint256"},{"astId":40412,"contract":"src/Pool.sol:Rewarder","label":"userRewardPerTokenPaid","offset":0,"slot":"4","type":"t_mapping(t_address,t_uint256)"},{"astId":40416,"contract":"src/Pool.sol:Rewarder","label":"rewards","offset":0,"slot":"5","type":"t_mapping(t_address,t_uint256)"}],"types":{"t_address":{"encoding":"inplace","label":"address","numberOfBytes":"20"},"t_mapping(t_address,t_uint256)":{"encoding":"mapping","key":"t_address","label":"mapping(address => uint256)","numberOfBytes":"32","value":"t_uint256"},"t_uint256":{"encoding":"inplace","label":"uint256","numberOfBytes":"32"}}},"id":22}